{
  "contractName": "Exchange",
  "abi": [
    {
      "constant": false,
      "inputs": [],
      "name": "depositEther",
      "outputs": [],
      "payable": true,
      "stateMutability": "payable",
      "type": "function",
      "signature": "0x98ea5fca"
    },
    {
      "constant": false,
      "inputs": [
        {
          "name": "amountInWei",
          "type": "uint256"
        }
      ],
      "name": "withdrawEther",
      "outputs": [],
      "payable": false,
      "stateMutability": "nonpayable",
      "type": "function",
      "signature": "0x3bed33ce"
    },
    {
      "constant": false,
      "inputs": [],
      "name": "getEthBalanceInWei",
      "outputs": [
        {
          "name": "",
          "type": "uint256"
        }
      ],
      "payable": false,
      "stateMutability": "nonpayable",
      "type": "function",
      "signature": "0x1a8eb72b"
    },
    {
      "constant": false,
      "inputs": [
        {
          "name": "symbolName",
          "type": "string"
        },
        {
          "name": "erc20TokenAddress",
          "type": "address"
        }
      ],
      "name": "addToken",
      "outputs": [],
      "payable": false,
      "stateMutability": "nonpayable",
      "type": "function",
      "signature": "0xb0b22c2c"
    },
    {
      "constant": false,
      "inputs": [
        {
          "name": "symbolName",
          "type": "string"
        }
      ],
      "name": "hasToken",
      "outputs": [
        {
          "name": "",
          "type": "bool"
        }
      ],
      "payable": false,
      "stateMutability": "nonpayable",
      "type": "function",
      "signature": "0x8ea00818"
    },
    {
      "constant": false,
      "inputs": [
        {
          "name": "symbolName",
          "type": "string"
        }
      ],
      "name": "getSymbolIndexOrThrow",
      "outputs": [
        {
          "name": "",
          "type": "uint8"
        }
      ],
      "payable": false,
      "stateMutability": "nonpayable",
      "type": "function",
      "signature": "0x977377f8"
    },
    {
      "constant": false,
      "inputs": [
        {
          "name": "symbolName",
          "type": "string"
        },
        {
          "name": "amount",
          "type": "uint256"
        }
      ],
      "name": "depositToken",
      "outputs": [],
      "payable": false,
      "stateMutability": "nonpayable",
      "type": "function",
      "signature": "0x33ad57e4"
    },
    {
      "constant": false,
      "inputs": [
        {
          "name": "symbolName",
          "type": "string"
        },
        {
          "name": "amount",
          "type": "uint256"
        }
      ],
      "name": "withdrawToken",
      "outputs": [],
      "payable": false,
      "stateMutability": "nonpayable",
      "type": "function",
      "signature": "0xc97a413a"
    },
    {
      "constant": false,
      "inputs": [
        {
          "name": "symbolName",
          "type": "string"
        }
      ],
      "name": "getBalance",
      "outputs": [
        {
          "name": "",
          "type": "uint256"
        }
      ],
      "payable": true,
      "stateMutability": "payable",
      "type": "function",
      "signature": "0x3a51d246"
    }
  ],
  "bytecode": "0x6080604052336000806101000a81548173ffffffffffffffffffffffffffffffffffffffff021916908373ffffffffffffffffffffffffffffffffffffffff1602179055506113f6806100536000396000f3fe608060405260043610610099576000357c0100000000000000000000000000000000000000000000000000000000900463ffffffff1680631a8eb72b1461009e57806333ad57e4146100c95780633a51d2461461019b5780633bed33ce1461026a5780638ea00818146102a5578063977377f81461038557806398ea5fca14610467578063b0b22c2c14610471578063c97a413a14610559575b600080fd5b3480156100aa57600080fd5b506100b361062b565b6040518082815260200191505060405180910390f35b3480156100d557600080fd5b50610199600480360360408110156100ec57600080fd5b810190808035906020019064010000000081111561010957600080fd5b82018360208201111561011b57600080fd5b8035906020019184600183028401116401000000008311171561013d57600080fd5b91908080601f016020809104026020016040519081016040528093929190818152602001838380828437600081840152601f19601f82011690508083019250505050505050919291929080359060200190929190505050610672565b005b610254600480360360208110156101b157600080fd5b81019080803590602001906401000000008111156101ce57600080fd5b8201836020820111156101e057600080fd5b8035906020019184600183028401116401000000008311171561020257600080fd5b91908080601f016020809104026020016040519081016040528093929190818152602001838380828437600081840152601f19601f820116905080830192505050505050509192919290505050610983565b6040518082815260200191505060405180910390f35b34801561027657600080fd5b506102a36004803603602081101561028d57600080fd5b81019080803590602001909291905050506109f0565b005b3480156102b157600080fd5b5061036b600480360360208110156102c857600080fd5b81019080803590602001906401000000008111156102e557600080fd5b8201836020820111156102f757600080fd5b8035906020019184600183028401116401000000008311171561031957600080fd5b91908080601f016020809104026020016040519081016040528093929190818152602001838380828437600081840152601f19601f820116905080830192505050505050509192919290505050610b67565b604051808215151515815260200191505060405180910390f35b34801561039157600080fd5b5061044b600480360360208110156103a857600080fd5b81019080803590602001906401000000008111156103c557600080fd5b8201836020820111156103d757600080fd5b803590602001918460018302840111640100000000831117156103f957600080fd5b91908080601f016020809104026020016040519081016040528093929190818152602001838380828437600081840152601f19601f820116905080830192505050505050509192919290505050610b96565b604051808260ff1660ff16815260200191505060405180910390f35b61046f610bbf565b005b34801561047d57600080fd5b506105576004803603604081101561049457600080fd5b81019080803590602001906401000000008111156104b157600080fd5b8201836020820111156104c357600080fd5b803590602001918460018302840111640100000000831117156104e557600080fd5b91908080601f016020809104026020016040519081016040528093929190818152602001838380828437600081840152601f19601f820116905080830192505050505050509192919290803573ffffffffffffffffffffffffffffffffffffffff169060200190929190505050610c9d565b005b34801561056557600080fd5b506106296004803603604081101561057c57600080fd5b810190808035906020019064010000000081111561059957600080fd5b8201836020820111156105ab57600080fd5b803590602001918460018302840111640100000000831117156105cd57600080fd5b91908080601f016020809104026020016040519081016040528093929190818152602001838380828437600081840152601f19601f82011690508083019250505050505050919291929080359060200190929190505050610de8565b005b6000600460003373ffffffffffffffffffffffffffffffffffffffff1673ffffffffffffffffffffffffffffffffffffffff16815260200190815260200160002054905090565b600061067d8361112d565b9050600073ffffffffffffffffffffffffffffffffffffffff16600160008360ff1660ff16815260200190815260200160002060000160009054906101000a900473ffffffffffffffffffffffffffffffffffffffff1673ffffffffffffffffffffffffffffffffffffffff16141515156106f757600080fd5b6000600160008360ff1660ff16815260200190815260200160002060000160009054906101000a900473ffffffffffffffffffffffffffffffffffffffff169050600115158173ffffffffffffffffffffffffffffffffffffffff166323b872dd3330876040518463ffffffff167c0100000000000000000000000000000000000000000000000000000000028152600401808473ffffffffffffffffffffffffffffffffffffffff1673ffffffffffffffffffffffffffffffffffffffff1681526020018373ffffffffffffffffffffffffffffffffffffffff1673ffffffffffffffffffffffffffffffffffffffff1681526020018281526020019350505050602060405180830381600087803b15801561081357600080fd5b505af1158015610827573d6000803e3d6000fd5b505050506040513d602081101561083d57600080fd5b8101908080519060200190929190505050151514151561085c57600080fd5b600360003373ffffffffffffffffffffffffffffffffffffffff1673ffffffffffffffffffffffffffffffffffffffff16815260200190815260200160002060008360ff1660ff1681526020019081526020016000205483600360003373ffffffffffffffffffffffffffffffffffffffff1673ffffffffffffffffffffffffffffffffffffffff16815260200190815260200160002060008560ff1660ff16815260200190815260200160002054011015151561091957600080fd5b82600360003373ffffffffffffffffffffffffffffffffffffffff1673ffffffffffffffffffffffffffffffffffffffff16815260200190815260200160002060008460ff1660ff1681526020019081526020016000206000828254019250508190555050505050565b60008061098f83610b96565b9050600360003373ffffffffffffffffffffffffffffffffffffffff1673ffffffffffffffffffffffffffffffffffffffff16815260200190815260200160002060008260ff1660ff16815260200190815260200160002054915050919050565b600081600460003373ffffffffffffffffffffffffffffffffffffffff1673ffffffffffffffffffffffffffffffffffffffff168152602001908152602001600020540310151515610a4157600080fd5b600460003373ffffffffffffffffffffffffffffffffffffffff1673ffffffffffffffffffffffffffffffffffffffff1681526020019081526020016000205481600460003373ffffffffffffffffffffffffffffffffffffffff1673ffffffffffffffffffffffffffffffffffffffff168152602001908152602001600020540311151515610ad057600080fd5b80600460003373ffffffffffffffffffffffffffffffffffffffff1673ffffffffffffffffffffffffffffffffffffffff168152602001908152602001600020600082825403925050819055503373ffffffffffffffffffffffffffffffffffffffff166108fc829081150290604051600060405180830381858888f19350505050158015610b63573d6000803e3d6000fd5b5050565b600080610b738361112d565b905060008160ff161415610b8b576000915050610b91565b60019150505b919050565b600080610ba28361112d565b905060008160ff16111515610bb657600080fd5b80915050919050565b600460003373ffffffffffffffffffffffffffffffffffffffff1673ffffffffffffffffffffffffffffffffffffffff1681526020019081526020016000205434600460003373ffffffffffffffffffffffffffffffffffffffff1673ffffffffffffffffffffffffffffffffffffffff168152602001908152602001600020540110151515610c4e57600080fd5b34600460003373ffffffffffffffffffffffffffffffffffffffff1673ffffffffffffffffffffffffffffffffffffffff16815260200190815260200160002060008282540192505081905550565b6000809054906101000a900473ffffffffffffffffffffffffffffffffffffffff1673ffffffffffffffffffffffffffffffffffffffff163373ffffffffffffffffffffffffffffffffffffffff161415610de457610cfb82610b67565b151515610d0757600080fd5b6002600081819054906101000a900460ff168092919060010191906101000a81548160ff021916908360ff160217905550508160016000600260009054906101000a900460ff1660ff1660ff1681526020019081526020016000206001019080519060200190610d78929190611325565b508060016000600260009054906101000a900460ff1660ff1660ff16815260200190815260200160002060000160006101000a81548173ffffffffffffffffffffffffffffffffffffffff021916908373ffffffffffffffffffffffffffffffffffffffff1602179055505b5050565b6000610df383610b96565b9050600073ffffffffffffffffffffffffffffffffffffffff16600160008360ff1660ff16815260200190815260200160002060000160009054906101000a900473ffffffffffffffffffffffffffffffffffffffff1673ffffffffffffffffffffffffffffffffffffffff1614151515610e6d57600080fd5b6000600160008360ff1660ff16815260200190815260200160002060000160009054906101000a900473ffffffffffffffffffffffffffffffffffffffff169050600083600360003373ffffffffffffffffffffffffffffffffffffffff1673ffffffffffffffffffffffffffffffffffffffff16815260200190815260200160002060008560ff1660ff168152602001908152602001600020540310151515610f1657600080fd5b600360003373ffffffffffffffffffffffffffffffffffffffff1673ffffffffffffffffffffffffffffffffffffffff16815260200190815260200160002060008360ff1660ff1681526020019081526020016000205483600360003373ffffffffffffffffffffffffffffffffffffffff1673ffffffffffffffffffffffffffffffffffffffff16815260200190815260200160002060008560ff1660ff168152602001908152602001600020540311151515610fd357600080fd5b82600360003373ffffffffffffffffffffffffffffffffffffffff1673ffffffffffffffffffffffffffffffffffffffff16815260200190815260200160002060008460ff1660ff16815260200190815260200160002060008282540392505081905550600115158173ffffffffffffffffffffffffffffffffffffffff1663a9059cbb33866040518363ffffffff167c0100000000000000000000000000000000000000000000000000000000028152600401808373ffffffffffffffffffffffffffffffffffffffff1673ffffffffffffffffffffffffffffffffffffffff16815260200182815260200192505050602060405180830381600087803b1580156110de57600080fd5b505af11580156110f2573d6000803e3d6000fd5b505050506040513d602081101561110857600080fd5b8101908080519060200190929190505050151514151561112757600080fd5b50505050565b600080600190505b600260009054906101000a900460ff1660ff168160ff1611151561119357611178600160008360ff1660ff1681526020019081526020016000206001018461119e565b156111865780915050611199565b8080600101915050611135565b50600090505b919050565b60008083905060608390508051828054600181600116156101000203166002900490501415156111d35760009250505061131f565b60008090505b8280546001816001161561010002031660029004905081101561131757818181518110151561120457fe5b9060200101517f010000000000000000000000000000000000000000000000000000000000000090047f0100000000000000000000000000000000000000000000000000000000000000027effffffffffffffffffffffffffffffffffffffffffffffffffffffffffffff19168382815460018160011615610100020316600290048110151561129057fe5b8154600116156112af5790600052602060002090602091828204019190065b9054901a7f0100000000000000000000000000000000000000000000000000000000000000027effffffffffffffffffffffffffffffffffffffffffffffffffffffffffffff191614151561130a576000935050505061131f565b80806001019150506111d9565b506001925050505b92915050565b828054600181600116156101000203166002900490600052602060002090601f016020900481019282601f1061136657805160ff1916838001178555611394565b82800160010185558215611394579182015b82811115611393578251825591602001919060010190611378565b5b5090506113a191906113a5565b5090565b6113c791905b808211156113c35760008160009055506001016113ab565b5090565b9056fea165627a7a723058203eb3c9f158ef2568a484339e35558b6fe888c90fa1d6c328b46525f3c05b322c0029",
  "source": "pragma solidity ^0.5.0;\n\nimport \"./owned.sol\";\nimport \"./FixedSupplyToken.sol\";\n\ncontract Exchange is owned{\n    ///////////////////////\n    // GENERAL STRUCTURE //\n    ///////////////////////\n\n    struct Offer {\n\n        uint amount;\n        address who;\n\n    }\n\n    struct OrderBook {\n\n        uint higherPrice; // pointing to the higher book entry\n        uint lowerPrice; // pointing to the lower book entry\n\n        mapping(uint => Offer) offers;\n        // offers are in stack\n\n        uint offers_key;\n        uint offers_length;\n    }\n\n    struct Token {\n\n        address tokenContract;\n\n        string symbolName;\n\n        mapping(uint => OrderBook) buyBook;\n\n        uint curBuyPrice; // last entry in the buyBook\n        uint lowesButPrice;\n        uint amountBuyPrices;\n\n        mapping(uint => OrderBook) sellBook;\n\n        uint curSellPrice;\n        uint highestSellPrice;\n        uint amountSellPrices;\n    }\n\n    // We support a max of 255 tokens\n    mapping (uint8 => Token) tokens;\n    uint8 symbolNameIndex;\n\n    ///////////////\n    // BALANCES //\n    //////////////\n\n    mapping (address => mapping(uint8 => uint)) tokenBalanceForAddress;\n\n    mapping (address => uint) balanceEthForAddress;\n\n    /////////////\n    // EVENTS //\n    ////////////\n\n    //////////////////////////////////\n    // DEPOSIT AND WITHDRAWAL ETHER //\n    //////////////////////////////////\n    function depositEther() public payable {\n        require(balanceEthForAddress[msg.sender] + msg.value >= balanceEthForAddress[msg.sender]);\n        balanceEthForAddress[msg.sender] += msg.value;\n    }\n\n    function withdrawEther(uint amountInWei) public {\n        require(balanceEthForAddress[msg.sender] - amountInWei >= 0);\n        require(balanceEthForAddress[msg.sender] - amountInWei <= balanceEthForAddress[msg.sender]);\n        balanceEthForAddress[msg.sender] -= amountInWei;\n        msg.sender.transfer(amountInWei);\n    }\n\n    function getEthBalanceInWei() public returns (uint) {\n        return balanceEthForAddress[msg.sender];\n    }\n\n    /////////////////////\n    // TOKEN MANAGMENT //\n    ////////////////////\n    // ********* Only for admin *********\n    function addToken(string memory symbolName, address erc20TokenAddress) public onlyowner{\n        require(!hasToken(symbolName));\n        symbolNameIndex ++;\n        tokens[symbolNameIndex].symbolName = symbolName;\n        tokens[symbolNameIndex].tokenContract = erc20TokenAddress;\n    }\n\n    function hasToken(string memory symbolName) public returns (bool) {\n        uint8 index = getSymbolIndex(symbolName);\n        if(index == 0) {\n            return false;\n        }\n\n        return true;\n    }\n\n    function getSymbolIndex(string memory symbolName) internal returns (uint8) {\n\n        for(uint8 i = 1; i <= symbolNameIndex; i++)\n        {\n            if(stringsEqual(tokens[i].symbolName, symbolName))\n            {\n                return i;\n            }\n        }\n        return 0;\n\n    }\n\n    function getSymbolIndexOrThrow(string memory symbolName) public returns (uint8) {\n        uint8 index = getSymbolIndex(symbolName);\n        require(index > 0);\n        return index;\n    }\n\n    function stringsEqual(string storage _a, string memory _b) internal returns (bool) {\n        bytes storage a = bytes(_a);\n        bytes memory b = bytes(_b);\n        if(a.length != b.length)\n            return false;\n        for(uint i = 0; i < a.length; i ++)\n         if(a[i] != b[i])\n            return false;\n        return true;\n    }\n    // **********************************\n\n    ///////////////////////////////////\n    // DEPOSIT AND WITHDRAWAL TOKEN //\n    //////////////////////////////////\n    function depositToken(string memory symbolName, uint amount) public {\n        uint8 symbolNameIndex = getSymbolIndex(symbolName);\n        require(tokens[symbolNameIndex].tokenContract != address(0));\n\n\n        ERC20Interface token = ERC20Interface(tokens[symbolNameIndex].tokenContract);\n        // Transfer the token from the Token Contract into Exchange contract\n        require(token.transferFrom(msg.sender, address(this), amount) == true);\n        require(tokenBalanceForAddress[msg.sender][symbolNameIndex] + amount >= tokenBalanceForAddress[msg.sender][symbolNameIndex]);\n\n        tokenBalanceForAddress[msg.sender][symbolNameIndex] += amount;\n    }\n\n    function withdrawToken(string memory symbolName, uint amount) public {\n        uint8 symbolNameIndex = getSymbolIndexOrThrow(symbolName);\n        require(tokens[symbolNameIndex].tokenContract != address(0));\n\n         ERC20Interface token = ERC20Interface(tokens[symbolNameIndex].tokenContract);\n\n        // Check if there is enough of the tokens for the address that is calling the contract for the symbol name that ther are trying to withdraw tokens\n        require(tokenBalanceForAddress[msg.sender][symbolNameIndex] - amount >= 0);\n        require(tokenBalanceForAddress[msg.sender][symbolNameIndex] - amount <= tokenBalanceForAddress[msg.sender][symbolNameIndex]);\n        // Transfer with the transfer function form the FixedSuuplyToken the tokens fromt he exchange addres to the address who is calling the exchange\n\n        tokenBalanceForAddress[msg.sender][symbolNameIndex] -= amount;\n        require(token.transfer(msg.sender, amount) == true);\n    }\n\n    function getBalance(string memory symbolName) payable public returns (uint) {\n        uint8 index = getSymbolIndexOrThrow(symbolName);\n        return tokenBalanceForAddress[msg.sender][index];\n    }\n    \n    ////////////////////////////\n    // ODER BOOK - BID ORDERS //\n    ////////////////////////////\n  //  function getBuyOrderBook(string memory symbolName) public pure returns(uint[], uint[]){ \n    // returns first array: amount for the price and the second one for the volume\n    // example: someone buys 1000 weis (first returned value) for 5000 tokens (second returned value)\n  \n //   }\n    \n     ////////////////////////////\n    // ODER BOOK - ASK ORDERS //\n    ////////////////////////////\n   //   function getSellOrderBook(string symbolName) pure returns(uint[], uint[]){ \n        \n   // }\n    \n     ////////////////////////////\n    // NEW ODER - BID ORDER //\n    ////////////////////////////\n //   function buyToken(string symbolName, uint priceInWei, uint amount){\n        \n//    }\n    \n       ////////////////////////////\n    // NEW ODER - ASK ORDER //\n    ////////////////////////////\n  //  function sellToken(string symbolName, uint priceInWei, uint amount) {\n        \n //   }\n    \n    //////////////////////////////\n    // CANCEL LIMIT ORDER LOGIC //\n    /////////////////////////////\n  //  function cancelOrder(string symbolName, bool isSellOrder, uint priceInWei, uint offerKey) {\n        \n  //  }\n    \n}",
  "sourcePath": "/BLOCK_CHAIN/truffle_project/contracts/Exchange.sol",
  "compiler": {
    "name": "solc",
    "version": "0.5.0+commit.1d4f565a.Emscripten.clang"
  },
  "schemaVersion": "3.0.1",
  "updatedAt": "2019-01-15T08:59:53.696Z",
  "devdoc": {
    "methods": {}
  },
  "userdoc": {
    "methods": {
      "addToken(string,address)": {
        "notice": "/////////////////"
      },
      "depositEther()": {
        "notice": "///////////////////////////////"
      },
      "depositToken(string,uint256)": {
        "notice": "///////////////////////////////"
      }
    }
  }
}